S00B00004C43442E7372656346
S11300000C942A000C9434000C9434000C943400A6
S11300100C9434000C9434000C9434000C9434008C
S11300200C9434000C9434000C9434000C9434007C
S11300300C9434000C9434000C9434000C9434006C
S11300400C9434000C9434000C9434000C9434005C
S11300500C94340011241FBECFE5D4E0DEBFCDBF25
S11300600E943B010C9424030C94000098B3282FA5
S113007022952F70922B98BBDC98DD9AEFE9FFE074
S11300803197F1F700C00000DD9898B3892B88BB45
S1130090DC98DD9A8FE99FE00197F1F700C000003A
S11300A0DD9808958FE295E70197F1F700C000000D
S11300B08FE087BB80E38ABB18BA1BBA82E00E9438
S11300C0360088E20E9436008EE00E94360086E008
S11300D00E94360081E00E94360080E80E943600CB
S11300E0089598B3282F22952F70922B98BBDC9AF1
S11300F0DD9AEFE9FFE03197F1F700C00000DD98E9
S113010098B3892B88BBDC9ADD9A8FE99FE001972D
S1130110F1F700C00000DD98089581E00E943600E8
S11301200895CF93DF93EC018881882331F02196E1
S11301300E94710089918111FBCFDF91CF910895C5
S1130140CF92DF92EF92FF920F931F93CF93DF939F
S1130150CDB7DEB760970FB6F894DEBF0FBECDBF44
S11301608C01992334F41195019511098DE20E94B3
S113017071000115110551F480E30E94710020E023
S113018030E027C0121613067CF023C0C80120E01B
S113019030E0EAE0F0E02F5F3F4FBF010E94FC0235
S11301A0CB010097C1F7EECFCE010196FC01E20F1F
S11301B0F31F7C010F2EFAE0CF2ED12CF02DC801B5
S11301C0B6010E94FC028B01805D8293EE15FF054F
S11301D0B1F7E1E0F0E0EC0FFD1FE20FF31F108236
S11301E0CE0101960E94910060960FB6F894DEBF8E
S11301F00FBECDBFDF91CF911F910F91FF90EF9074
S1130200DF90CF9008958F929F92AF92BF92CF923A
S1130210DF92EF92FF924B015C010E94CB016B01D4
S11302207C01CB010E94A000B601DD0C880B990B68
S11302300E9403029B01AC01C501B4010E945E014E
S11302406B017C018EE20E94710020E030E04AE7FD
S113025054E4C701B6010E948F020E94CB01CB0176
S11302600E94A000FF90EF90DF90CF90BF90AF90DE
S11302709F908F9008950E9452000E948D008EE6F8
S113028090E00E94A0002FEF89E698E12150804081
S11302909040E1F700C000000E948D006BE074E222
S11302A080E89FE30E9403012FEF89E698E1215043
S11302B080409040E1F700C00000DFCF5058BB27DA
S11302C0AA270E9476010C9455020E94470238F036
S11302D00E944E0220F039F49F3F19F426F40C9446
S11302E044020EF4E095E7FB0C943E02E92F0E94D1
S11302F0660258F3BA17620773078407950720F05C
S113030079F4A6F50C9488020EF4E0950B2EBA2F1E
S1130310A02D0B01B90190010C01CA01A001112407
S1130320FF27591B99F0593F50F4503E68F11A16B3
S1130330F040A22F232F342F4427585FF3CF469544
S113034037952795A795F0405395C9F77EF41F1666
S1130350BA0B620B730B840BBAF09150A1F0FF0F30
S1130360BB1F661F771F881FC2F70EC0BA0F621F1C
S1130370731F841F48F4879577956795B795F7950C
S11303809E3F08F0B0CF9395880F08F09927EE0FA1
S11303909795879508950E94D2016894B1110C94A1
S11303A0890208950E946E0288F09F5798F0B92F31
S11303B09927B751B0F0E1F0660F771F881F991F96
S11303C01AF0BA95C9F714C0B13091F00E948802AE
S11303D0B1E008950C948802672F782F8827B85FBE
S11303E039F0B93FCCF3869577956795B395D9F7EE
S11303F03EF490958095709561957F4F8F4F9F4FF8
S11304000895E89409C097FB3EF490958095709503
S113041061957F4F8F4F9F4F9923A9F0F92F96E94C
S1130420BB279395F695879577956795B795F111C1
S1130430F8CFFAF4BB0F11F460FF1BC06F5F7F4F5E
S11304408F4F9F4F16C0882311F096E911C0772370
S113045021F09EE8872F762F05C0662371F096E879
S1130460862F70E060E02AF09A95660F771F881F48
S1130470DAF7880F9695879597F9089597F99F6706
S113048080E870E060E008959FEF80EC0895002418
S11304900A941616170618060906089500240A94E5
S11304A012161306140605060895092E0394000C6B
S11304B011F4882352F0BB0F40F4BF2B11F460FFFA
S11304C004C06F5F7F4F8F4F9F4F089557FD905823
S11304D0440F551F59F05F3F71F04795880F97FB04
S11304E0991F61F09F3F79F08795089512161306BE
S11304F01406551FF2CF4695F1DF08C016161706ED
S11305001806991FF1CF8695710561050894089521
S1130510E894BB2766277727CB0197F908950E94B3
S1130520A2020C9455020E94470238F00E944E0227
S113053020F0952311F00C943E020C9444021124F3
S11305400C9489020E94660270F3959FC1F3950F83
S113055050E0551F629FF001729FBB27F00DB11D43
S1130560639FAA27F00DB11DAA1F649F6627B00DD3
S1130570A11D661F829F2227B00DA11D621F739FBC
S1130580B00DA11D621F839FA00D611D221F749FCA
S11305903327A00D611D231F849F600D211D822F11
S11305A0762F6A2F11249F5750409AF0F1F0882338
S11305B04AF0EE0FFF1FBB1F661F771F881F915065
S11305C05040A9F79E3F510580F00C943E020C94D4
S11305D089025F3FE4F3983ED4F386957795679557
S11305E0B795F795E7959F5FC1F7FE2B880F911D8F
S11305F09695879597F9089597FB072E16F400941E
S113060007D077FD09D00E94100307FC05D03EF403
S1130610909581959F4F0895709561957F4F0895AA
S1130620AA1BBB1B51E107C0AA1FBB1FA617B70714
S113063010F0A61BB70B881F991F5A95A9F7809530
S10F06409095BC01CD010895F894FFCF03
S9030000FC
