:100000000C942A000C9434000C9434000C943400AA
:100010000C9434000C9434000C9434000C94340090
:100020000C9434000C9434000C9434000C94340080
:100030000C9434000C9434000C9434000C94340070
:100040000C9434000C9434000C9434000C94340060
:100050000C94340011241FBECFE5D4E0DEBFCDBF29
:100060000E9436000C9452000C9400008FEF87BB66
:100070008998919A8199FECF90B318BA2FEF39E6FB
:1000800098E1215030409040E1F700C0000088BB6B
:100090002FEF39E698E1215030409040E1F700C061
:0800A0000000E8CFF894FFCF47
:00000001FF
