S0180000494E505554434150545552454D4F44452E7372656343
S11300000C942A000C9447000C9447000C9447006D
S11300100C9447000C9462010C9447000C94470024
S11300200C9447000C9447000C9447000C94470030
S11300300C9447000C9447000C9447000C94470020
S11300400C9447000C9447000C9447000C94470010
S11300500C94470011241FBECFE5D4E0DEBFCDBF12
S113006010E0A0E6B0E0E6E4F3E002C005900D92F3
S1130070AA36B107D9F720E0AAE6B0E001C01D9284
S1130080AC36B207E1F70E9431010C94A1010C9443
S11300900000282F30E0359527953595279535951F
S11300A027953595279528BBDC98DD9AEFE3FFE18A
S11300B03197F1F700C00000DD9888BBDC98DD9A29
S11300C08FE39FE10197F1F700C00000DD980895E8
S11300D08FE59AEE0197F1F700C000008FE087BB2F
S11300E080E38ABB18BA1BBA82E00E94490088E206
S11300F00E9449008EE00E94490086E00E94490067
S113010081E00E94490080E80E9449000895282F58
S113011030E035952795359527953595279535956F
S1130120279528BBDC9ADD9AEFE3FFE13197F1F7DD
S113013000C00000DD9888BBDC9ADD9A8FE39FE164
S11301400197F1F700C00000DD98089581E00E9456
S113015049000895CF93DF93EC018881882331F01F
S113016021960E94870089918111FBCFDF91CF9165
S11301700895CF92DF92EF92FF920F931F93CF9344
S1130180DF93CDB7DEB760970FB6F894DEBF0FBE2E
S1130190CDBF8C01992334F41195019511098DE299
S11301A00E9487000115110551F480E30E94870025
S11301B020E030E027C0121613067CF023C0C801EB
S11301C020E030E0EAE0F0E02F5F3F4FBF010E9403
S11301D07901CB010097C1F7EECFCE010196FC0166
S11301E0E20FF31F7C010F2EFAE0CF2ED12CF02D5D
S11301F0C801B6010E9479018B01805D8293EE15DE
S1130200FF05B1F7E1E0F0E0EC0FFD1FE20FF31F93
S11302101082CE0101960E94AA0060960FB6F8944F
S1130220DEBF0FBECDBFDF91CF911F910F91FF9025
S1130230EF90DF90CF900895CF93DF93EC0162307D
S1130240710519F480EC0E9449008881882331F0FB
S113025021960E94870089918111FBCFDF91CF9174
S113026008950E94A6000E94680080E690E00E9423
S1130270AA002FEF81EE94E0215080409040E1F7F6
S113028000C00000789411BA1FBC85EC8EBD80E2DA
S113029089BF0E94A60080916A0090916B000E9421
S11302A0B90062E070E087E690E00E941C0186B528
S11302B090E00E94B9008FE39CE90197F1F700C038
S11302C00000E7CF1F920F920FB60F9211248F9365
S11302D09F9380916A0090916B00019690936B00BC
S11302E080936A009F918F910F900FBE0F901F9083
S11302F0189597FB072E16F4009407D077FD09D0C4
S11303000E948D0107FC05D03EF4909581959F4F86
S11303100895709561957F4F0895AA1BBB1B51E109
S113032007C0AA1FBB1FA617B70710F0A61BB70B61
S1130330881F991F5A95A9F780959095BC01CD0106
S10903400895F894FFCFBC
S10D03466A617976696B00200000FB
S9030000FC
